{
  "transactions": [
    {
      "hash": "0x8450b50eb6f4cacf3da1078f0b9df9d5d64cf5c1e6692c3d5cf68388098cbf9b",
      "transactionType": "CALL",
      "contractName": null,
      "contractAddress": "0x25dd78c2c9bb05f80b55083f4f2b0315769c570c",
      "function": "mintNFT(address,string)",
      "arguments": [
        "0x264BFac925e7Ea3B0404D92B66CD582C7c69f815",
        "ipfs://bafkreig4ulzr6xwwa3l6n7pajicmeuapthrjvocfwb7dlfl3x6ftexhrkm"
      ],
      "transaction": {
        "from": "0x264bfac925e7ea3b0404d92b66cd582c7c69f815",
        "to": "0x25dd78c2c9bb05f80b55083f4f2b0315769c570c",
        "gas": "0x3e7e2",
        "value": "0x0",
        "input": "0xeacabe14000000000000000000000000264bfac925e7ea3b0404d92b66cd582c7c69f81500000000000000000000000000000000000000000000000000000000000000400000000000000000000000000000000000000000000000000000000000000042697066733a2f2f6261666b7265696734756c7a723678777761336c366e3770616a69636d657561707468726a766f6366776237646c666c3378366674657868726b6d000000000000000000000000000000000000000000000000000000000000",
        "nonce": "0x4",
        "chainId": "0xaa36a7"
      },
      "additionalContracts": [],
      "isFixedGasLimit": false
    }
  ],
  "receipts": [
    {
      "status": "0x1",
      "cumulativeGasUsed": "0x13e8791",
      "logs": [
        {
          "address": "0x25dd78c2c9bb05f80b55083f4f2b0315769c570c",
          "topics": [
            "0xddf252ad1be2c89b69c2b068fc378daa952ba7f163c4a11628f55a4df523b3ef",
            "0x0000000000000000000000000000000000000000000000000000000000000000",
            "0x000000000000000000000000264bfac925e7ea3b0404d92b66cd582c7c69f815",
            "0x0000000000000000000000000000000000000000000000000000000000000000"
          ],
          "data": "0x",
          "blockHash": "0x67569a8cba3fd7a656aba4a4923f09189fd0f4d9802c70731e7862bbb7121553",
          "blockNumber": "0x891648",
          "blockTimestamp": "0x689e2624",
          "transactionHash": "0x8450b50eb6f4cacf3da1078f0b9df9d5d64cf5c1e6692c3d5cf68388098cbf9b",
          "transactionIndex": "0x69",
          "logIndex": "0x670",
          "removed": false
        },
        {
          "address": "0x25dd78c2c9bb05f80b55083f4f2b0315769c570c",
          "topics": [
            "0xf8e1a15aba9398e019f0b49df1a4fde98ee17ae345cb5f6b5e2c27f5033e8ce7"
          ],
          "data": "0x0000000000000000000000000000000000000000000000000000000000000000",
          "blockHash": "0x67569a8cba3fd7a656aba4a4923f09189fd0f4d9802c70731e7862bbb7121553",
          "blockNumber": "0x891648",
          "blockTimestamp": "0x689e2624",
          "transactionHash": "0x8450b50eb6f4cacf3da1078f0b9df9d5d64cf5c1e6692c3d5cf68388098cbf9b",
          "transactionIndex": "0x69",
          "logIndex": "0x671",
          "removed": false
        }
      ],
      "logsBloom": "0x00000000000000000000000000000000000000000000000000040000000000000000000000000000000000000000000000000000000000004000000000000000000000000000000000000008000000000000000000000000000000000000000000000000020000000000000000000800000000000000000000000010000000000000000000000000000000000000000000000000000000000000000000000000000000000000000000000000000000002000000000000000000000000000008000000002000000000000000000004008100000000000000000000000000020000200000000000000200000000000000000000000000000000000000000000000",
      "type": "0x2",
      "transactionHash": "0x8450b50eb6f4cacf3da1078f0b9df9d5d64cf5c1e6692c3d5cf68388098cbf9b",
      "transactionIndex": "0x69",
      "blockHash": "0x67569a8cba3fd7a656aba4a4923f09189fd0f4d9802c70731e7862bbb7121553",
      "blockNumber": "0x891648",
      "gasUsed": "0x2d3e6",
      "effectiveGasPrice": "0xa1572be",
      "from": "0x264bfac925e7ea3b0404d92b66cd582c7c69f815",
      "to": "0x25dd78c2c9bb05f80b55083f4f2b0315769c570c",
      "contractAddress": null
    }
  ],
  "libraries": [],
  "pending": [],
  "returns": {},
  "timestamp": 1755195351,
  "chain": 11155111,
  "commit": "ba29a02"
}